:100000000C942A000C9434000C9434000C943400AA
:100010000C9434000C9434000C9434000C94340090
:100020000C9434000C9434000C9434000C94340080
:100030000C9434000C9434000C9434000C94340070
:100040000C9434000C9434000C9434000C94340060
:100050000C94340011241FBECFE5D8E0DEBFCDBF25
:100060000E941E030C942B030C940000DF93CF938B
:1000700000D000D000D0CDB7DEB78B836C838B81EE
:100080008695869586958A838B81877089838A81F8
:10009000282F30E03E832D838D819E818130910514
:1000A00009F443C02D813E81223031052CF48D812D
:1000B0009E81009771F0BCC02D813E8122303105B8
:1000C00009F45FC08D819E818330910509F485C05C
:1000D000AFC08C818130A1F4AAE3B0E0EAE3F0E0A4
:1000E0008081482F8981282F30E081E090E0022E26
:1000F00002C0880F991F0A94E2F7842B8C9398C052
:10010000AAE3B0E0EAE3F0E08081482F8981282F5C
:1001100030E081E090E0022E02C0880F991F0A941F
:10012000E2F7809584238C9383C08C818130A1F485
:10013000A7E3B0E0E7E3F0E08081482F8981282F32
:1001400030E081E090E0022E02C0880F991F0A94EF
:10015000E2F7842B8C936CC0A7E3B0E0E7E3F0E018
:100160008081482F8981282F30E081E090E0022EA5
:1001700002C0880F991F0A94E2F7809584238C931C
:1001800057C08C818130A1F4A4E3B0E0E4E3F0E057
:100190008081482F8981282F30E081E090E0022E75
:1001A00002C0880F991F0A94E2F7842B8C9340C0F9
:1001B000A4E3B0E0E4E3F0E08081482F8981282FB8
:1001C00030E081E090E0022E02C0880F991F0A946F
:1001D000E2F7809584238C932BC08C818130A1F42D
:1001E000A1E3B0E0E1E3F0E08081482F8981282F8E
:1001F00030E081E090E0022E02C0880F991F0A943F
:10020000E2F7842B8C9314C0A1E3B0E0E1E3F0E0CB
:100210008081482F8981282F30E081E090E0022EF4
:1002200002C0880F991F0A94E2F7809584238C936B
:1002300026960FB6F894DEBF0FBECDBFCF91DF91EB
:100240000895DF93CF9300D000D000D0CDB7DEB7B4
:100250008B836C838B818695869586958A838B812B
:10026000877089838A81282F30E03E832D838D819A
:100270009E818130910509F443C02D813E81223059
:1002800031052CF48D819E81009771F0BCC02D81C9
:100290003E812230310509F45FC08D819E8183301B
:1002A000910509F485C0AFC08C818130A1F4ABE326
:1002B000B0E0EBE3F0E08081482F8981282F30E027
:1002C00081E090E0022E02C0880F991F0A94E2F7A5
:1002D000842B8C9398C0ABE3B0E0EBE3F0E080813B
:1002E000482F8981282F30E081E090E0022E02C063
:1002F000880F991F0A94E2F7809584238C9383C01A
:100300008C818130A1F4A8E3B0E0E8E3F0E08081E3
:10031000482F8981282F30E081E090E0022E02C032
:10032000880F991F0A94E2F7842B8C936CC0A8E382
:10033000B0E0E8E3F0E08081482F8981282F30E0A9
:1003400081E090E0022E02C0880F991F0A94E2F724
:10035000809584238C9357C08C818130A1F4A5E3D0
:10036000B0E0E5E3F0E08081482F8981282F30E07C
:1003700081E090E0022E02C0880F991F0A94E2F7F4
:10038000842B8C9340C0A5E3B0E0E5E3F0E08081EE
:10039000482F8981282F30E081E090E0022E02C0B2
:1003A000880F991F0A94E2F7809584238C932BC0C1
:1003B0008C818130A1F4A2E3B0E0E2E3F0E080813F
:1003C000482F8981282F30E081E090E0022E02C082
:1003D000880F991F0A94E2F7842B8C9314C0A2E330
:1003E000B0E0E2E3F0E08081482F8981282F30E0FF
:1003F00081E090E0022E02C0880F991F0A94E2F774
:10040000809584238C9326960FB6F894DEBF0FBE9A
:10041000CDBFCF91DF910895DF93CF93CDB7DEB7F6
:1004200027970FB6F894DEBF0FBECDBF8B838B81AD
:100430008695869586958A838B81877089838A8144
:10044000282F30E03E832D834D815E814130510560
:1004500049F18D819E818230910534F42D813E8158
:100460002115310561F057C04D815E814230510543
:1004700061F18D819E8183309105D1F14CC0E9E31A
:10048000F0E08081282F30E08981882F90E0A90159
:1004900002C0559547958A95E2F7CA01582F5170C9
:1004A0005C833AC0E6E3F0E08081282F30E0898168
:1004B000882F90E0A90102C0559547958A95E2F7EB
:1004C000CA01582F51705C8327C0E3E3F0E08081BC
:1004D000282F30E08981882F90E0A90102C055952E
:1004E00047958A95E2F7CA01582F51705C8314C072
:1004F000E0E3F0E08081282F30E08981882F90E0D0
:10050000A90102C0559547958A95E2F7CA01582F6F
:1005100051705C8301C002C08C818F838F812796CC
:100520000FB6F894DEBF0FBECDBFCF91DF91089517
:10053000DF93CF9300D000D00F92CDB7DEB78B837F
:100540008B818695869586958A838B818770898332
:100550008A81282F30E03D832C838C819D818130DE
:10056000910549F12C813D81223031052CF48C819B
:100570009D81009761F05AC02C813D812230310568
:1005800071F18C819D8183309105E9F14FC0ABE31E
:10059000B0E0EBE3F0E08081482F8981282F30E044
:1005A00081E090E0022E02C0880F991F0A94E2F7C2
:1005B00084278C933BC0A8E3B0E0E8E3F0E08081BF
:1005C000482F8981282F30E081E090E0022E02C080
:1005D000880F991F0A94E2F784278C9327C0A5E31C
:1005E000B0E0E5E3F0E08081482F8981282F30E0FA
:1005F00081E090E0022E02C0880F991F0A94E2F772
:1006000084278C9313C0A2E3B0E0E2E3F0E08081A2
:10061000482F8981282F30E081E090E0022E02C02F
:10062000880F991F0A94E2F784278C930F900F90FC
:100630000F900F900F90CF91DF910895DF93CF939C
:10064000CDB7DEB786E061E00E94360086E061E06B
:0A0650000E942101FFCFF894FFCFB4
:00000001FF
