:100000000C942A000C9434000C9434000C943400AA
:100010000C9434000C9434000C9434000C94340090
:100020000C9434000C9434000C9434000C94340080
:100030000C9434000C9434000C9434000C94340070
:100040000C9434000C9434000C9434000C94340060
:100050000C94340011241FBECFE5D8E0DEBFCDBF25
:100060000E9408030C9424030C940000DF93CF93A8
:1000700000D000D000D0CDB7DEB78B836C838B81EE
:100080008695869586958A838B81877089838A81F8
:10009000282F30E03E832D838D819E818130910514
:1000A00009F443C02D813E81223031052CF48D812D
:1000B0009E81009771F0BCC02D813E8122303105B8
:1000C00009F45FC08D819E818330910509F485C05C
:1000D000AFC08C818130A1F4AAE3B0E0EAE3F0E0A4
:1000E0008081482F8981282F30E081E090E0022E26
:1000F00002C0880F991F0A94E2F7842B8C9398C052
:10010000AAE3B0E0EAE3F0E08081482F8981282F5C
:1001100030E081E090E0022E02C0880F991F0A941F
:10012000E2F7809584238C9383C08C818130A1F485
:10013000A7E3B0E0E7E3F0E08081482F8981282F32
:1001400030E081E090E0022E02C0880F991F0A94EF
:10015000E2F7842B8C936CC0A7E3B0E0E7E3F0E018
:100160008081482F8981282F30E081E090E0022EA5
:1001700002C0880F991F0A94E2F7809584238C931C
:1001800057C08C818130A1F4A4E3B0E0E4E3F0E057
:100190008081482F8981282F30E081E090E0022E75
:1001A00002C0880F991F0A94E2F7842B8C9340C0F9
:1001B000A4E3B0E0E4E3F0E08081482F8981282FB8
:1001C00030E081E090E0022E02C0880F991F0A946F
:1001D000E2F7809584238C932BC08C818130A1F42D
:1001E000A1E3B0E0E1E3F0E08081482F8981282F8E
:1001F00030E081E090E0022E02C0880F991F0A943F
:10020000E2F7842B8C9314C0A1E3B0E0E1E3F0E0CB
:100210008081482F8981282F30E081E090E0022EF4
:1002200002C0880F991F0A94E2F7809584238C936B
:1002300026960FB6F894DEBF0FBECDBFCF91DF91EB
:100240000895DF93CF9300D000D000D0CDB7DEB7B4
:100250008B836C838B818695869586958A838B812B
:10026000877089838A81282F30E03E832D838D819A
:100270009E818130910509F443C02D813E81223059
:1002800031052CF48D819E81009771F0BCC02D81C9
:100290003E812230310509F45FC08D819E8183301B
:1002A000910509F485C0AFC08C818130A1F4ABE326
:1002B000B0E0EBE3F0E08081482F8981282F30E027
:1002C00081E090E0022E02C0880F991F0A94E2F7A5
:1002D000842B8C9398C0ABE3B0E0EBE3F0E080813B
:1002E000482F8981282F30E081E090E0022E02C063
:1002F000880F991F0A94E2F7809584238C9383C01A
:100300008C818130A1F4A8E3B0E0E8E3F0E08081E3
:10031000482F8981282F30E081E090E0022E02C032
:10032000880F991F0A94E2F7842B8C936CC0A8E382
:10033000B0E0E8E3F0E08081482F8981282F30E0A9
:1003400081E090E0022E02C0880F991F0A94E2F724
:10035000809584238C9357C08C818130A1F4A5E3D0
:10036000B0E0E5E3F0E08081482F8981282F30E07C
:1003700081E090E0022E02C0880F991F0A94E2F7F4
:10038000842B8C9340C0A5E3B0E0E5E3F0E08081EE
:10039000482F8981282F30E081E090E0022E02C0B2
:1003A000880F991F0A94E2F7809584238C932BC0C1
:1003B0008C818130A1F4A2E3B0E0E2E3F0E080813F
:1003C000482F8981282F30E081E090E0022E02C082
:1003D000880F991F0A94E2F7842B8C9314C0A2E330
:1003E000B0E0E2E3F0E08081482F8981282F30E0FF
:1003F00081E090E0022E02C0880F991F0A94E2F774
:10040000809584238C9326960FB6F894DEBF0FBE9A
:10041000CDBFCF91DF910895DF93CF93CDB7DEB7F6
:1004200027970FB6F894DEBF0FBECDBF8B838B81AD
:100430008695869586958A838B81877089838A8144
:10044000282F30E03E832D834D815E814130510560
:1004500049F18D819E818230910534F42D813E8158
:100460002115310561F057C04D815E814230510543
:1004700061F18D819E8183309105D1F14CC0E9E31A
:10048000F0E08081282F30E08981882F90E0A90159
:1004900002C0559547958A95E2F7CA01582F5170C9
:1004A0005C833AC0E6E3F0E08081282F30E0898168
:1004B000882F90E0A90102C0559547958A95E2F7EB
:1004C000CA01582F51705C8327C0E3E3F0E08081BC
:1004D000282F30E08981882F90E0A90102C055952E
:1004E00047958A95E2F7CA01582F51705C8314C072
:1004F000E0E3F0E08081282F30E08981882F90E0D0
:10050000A90102C0559547958A95E2F7CA01582F6F
:1005100051705C8301C002C08C818F838F812796CC
:100520000FB6F894DEBF0FBECDBFCF91DF91089517
:10053000DF93CF93CDB7DEB7ADE2B0E0EDE2F0E010
:10054000808180648C938DE060E00E9436008FE0B3
:1005500060E00E9436008CE060E00E9436008CE093
:1005600061E00E9421018EE061E00E943600ADE270
:10057000B0E0EDE2F0E080818F7E8C93ADE2B0E000
:10058000EDE2F0E0808180628C93ADE2B0E0EDE2DC
:10059000F0E08081877F8C93ADE2B0E0EDE2F0E0A7
:1005A000808184608C93ADE2B0E0EDE2F0E0808188
:1005B0008F778C93ADE2B0E0EDE2F0E08081826075
:1005C0008C93ADE2B0E0EDE2F0E080818E7F8C9321
:1005D000AEE2B0E0EEE2F0E080818E7F8C93CF91CE
:1005E000DF910895DF93CF930F92CDB7DEB7898364
:1005F000EFE2F0E089818083EEE2F0E08081882301
:10060000DCF7EFE2F0E080810F90CF91DF91089569
:10061000DF93CF930F92CDB7DEB70E9498028FE1A0
:1006200061E00E94360080E00E94F20289838981A5
:10063000813629F48FE161E00E942101F4CF8FE13E
:0C06400060E00E942101EFCFF894FFCF92
:00000001FF
