:100000000C942A000C9447000C9447000C94470071
:100010000C9447000C9447000C94D1110C944700A9
:100020000C9447000C9488120C9447000C944700E1
:100030000C9447000C9447000C9447000C94470024
:100040000C9447000C9447000C9447000C94470014
:100050000C94470011241FBECFE5D8E0DEBFCDBF12
:1000600011E0A0E6B0E0E4EDF5E202C005900D92EB
:10007000AE37B107D9F711E0AEE7B1E001C01D928C
:10008000A938B107E1F70E94BE100C94E8120C9455
:100090000000EF92FF920F931F937B018C0120E0F1
:1000A00030E040E05FE40E94F50388238CF0C80153
:1000B000B70120E030E040E05FE40E94C1010E940F
:1000C00055049B01AC01205030404040504806C0D0
:1000D000C801B7010E9455049B01AC01B901CA01D6
:1000E0001F910F91FF90EF900895A0E0B0E0EBE733
:1000F000F0E00C94B112DC012B01FA019C919230DA
:1001000008F439C1EB018881823008F433C194309E
:1001100069F4843009F02FC111969C91119789815F
:10012000981709F428C1A5E7B0E025C1843009F487
:1001300021C18230A9F4923009F01DC19A01AD01AC
:1001400088E0EA010990AE01E90109929E0181501F
:10015000C1F7E201898111969C918923818308C1AD
:10016000923009F407C112962D903C901397EB0141
:100170008A819B811496AD90BD90CD90DC901797AD
:10018000EC80FD800E811F819101281B390BB90184
:1001900037FF04C066277727621B730B6032710537
:1001A0000CF061C0121613066CF537014801062EDB
:1001B00004C096948794779467940A94D2F721E0C8
:1001C00030E040E050E004C0220F331F441F551FB1
:1001D0006A95D2F721503040404050402E213F21B7
:1001E00040235123211531054105510521F021E01E
:1001F00030E040E050E079018A01E628F72808293C
:1002000019293CC0232BD1F1260E371E350146019A
:10021000062E04C096948794779467940A94D2F734
:1002200021E030E040E050E004C0220F331F441FC3
:10023000551F6A95D2F721503040404050402A2146
:100240003B214C215D21211531054105510521F04E
:1002500021E030E040E050E059016A01A628B728CB
:10026000C828D9280BC0821593052CF01C01AA249C
:10027000BB24650103C0EE24FF24870111969C91E5
:10028000D20111968C91981709F445C0992339F041
:10029000A80197012A193B094C095D0906C0A6016E
:1002A00095012E193F09400B510B57FD08C01182D3
:1002B0003382228224833583468357831DC081E0A5
:1002C00081833382228288279927DC01821B930B4A
:1002D000A40BB50B84839583A683B7830DC0220F2F
:1002E000331F441F551F24833583468357838281E0
:1002F000938101979383828324813581468157813D
:10030000DA01C9010197A109B1098F5F9F4FAF4F72
:10031000BF4328F30BC0918333822282EA0CFB1C7B
:100320000C1D1D1DE482F5820683178383E0808304
:10033000248135814681578157FF1AC0C901AA27F8
:1003400097FDA095BA2F81709070A070B0705695EF
:10035000479537952795822B932BA42BB52B848318
:100360009583A683B7838281938101969383828349
:10037000DF0101C0D201CD01CDB7DEB7E2E10C94BF
:10038000CD12A0E2B0E0E7ECF1E00C94BD1269837D
:100390007A838B839C832D833E834F835887E9E048
:1003A000EE2EF12CEC0EFD1ECE010196B7010E943F
:1003B00046068E010F5E1F4FCE010596B8010E94C2
:1003C00046068A8991E089278A8BC701B801AE0168
:1003D000475E5F4F0E9475000E947105A096E6E09F
:1003E0000C94D912A0E2B0E0E8EFF1E00C94BD1259
:1003F00069837A838B839C832D833E834F835887C5
:10040000F9E0EF2EF12CEC0EFD1ECE010196B701A6
:100410000E9446068E010F5E1F4FCE010596B80161
:100420000E944606C701B801AE01475E5F4F0E94B9
:1004300075000E947105A096E6E00C94D912A0E226
:10044000B0E0E5E2F2E00C94B11269837A838B8329
:100450009C832D833E834F835887CE010196BE0136
:10046000675F7F4F0E944606CE010596BE016F5E14
:100470007F4F0E9446069985923088F089898230A4
:10048000C8F0943019F4823051F404C0843029F457
:10049000923081F485E790E0C6C0923049F420E0C4
:1004A0009A858A89981321E02A87CE010996BBC0D4
:1004B000823049F420E09A858A89981321E02A8BBA
:1004C000CE014196B0C02D843E844F8458886D88FB
:1004D0007E888F88988CEE24FF248701AA24BB2471
:1004E000650140E050E060E070E0E0E0F0E0C10174
:1004F00081709070892BE9F0E60CF71C081D191D1E
:100500009A01AB012A0D3B1D4C1D5D1D80E090E062
:10051000A0E0B0E0E614F7040805190520F481E036
:1005200090E0A0E0B0E0BA01A901480F591F6A1F8E
:100530007B1FAA0CBB1CCC1CDD1C97FE08C081E0F5
:1005400090E0A0E0B0E0A82AB92ACA2ADB2A3196B6
:10055000E032F10549F0660C771C881C991C569412
:10056000479437942794C3CFFA85EA892B893C892D
:100570008B859C85280F391F2E5F3F4F17C0CA01FE
:1005800081709070892B61F016950795F794E79428
:1005900080E090E0A0E0B0E8E82AF92A0A2B1B2BC3
:1005A00076956795579547952F5F3F4F77FDE7CF36
:1005B0000CC0440F551F661F771F17FD4160EE0CDE
:1005C000FF1C001F111F21503040403090E05907A0
:1005D00090E0690790E4790760F32B8F3C8FDB0193
:1005E000CA018F779070A070B07080349105A1051A
:1005F000B10561F447FD0AC0E114F10401051105DC
:1006000029F0405C5F4F6F4F7F4F40781A8EFE1786
:1006100011F081E08A8F4D8F5E8F6F8F78A383E01A
:10062000898FCE0149960E947105A096E2E10C9453
:10063000CD12A8E1B0E0EFE1F3E00C94B9126983C8
:100640007A838B839C832D833E834F835887B9E0C5
:10065000EB2EF12CEC0EFD1ECE010196B7010E948F
:1006600046068E010F5E1F4FCE010596B8010E940F
:1006700046062985223008F47EC03989323010F4CC
:10068000B8017CC08A859A8989278A87243011F02D
:10069000223031F4231709F06EC065E770E06EC0B8
:1006A000343039F41D861E861F86188A1C861B86E8
:1006B00004C0323021F484E08987B7015FC02B8504
:1006C0003C858B899C89281B390B3C872B87ED84C3
:1006D000FE840F851889AD88BE88CF88D88CEA142F
:1006E000FB040C051D0540F4EE0CFF1C001F111F40
:1006F000215030403C872B8720E030E040E050E044
:1007000080E090E0A0E0B0E460E070E0EA14FB0478
:100710000C051D0540F0282B392B4A2B5B2BEA18C2
:10072000FB080C091D09B695A79597958795EE0CC2
:10073000FF1C001F111F6F5F7F4F6F31710531F775
:10074000DA01C9018F779070A070B0708034910584
:10075000A105B10561F427FD0AC0E114F10401050A
:10076000110529F0205C3F4F4F4F5F4F20782D87B8
:100770003E874F87588BBE01675F7F4FCB010E943A
:1007800071056896EAE00C94D512A8E1B0E0EBECB4
:10079000F3E00C94BD1269837A838B839C832D8351
:1007A0003E834F83588789E0E82EF12CEC0EFD1E26
:1007B000CE010196B7010E9446068E010F5E1F4FC3
:1007C000CE010596B8010E9446068985823040F028
:1007D0008989823028F0C701B8010E94BE0601C095
:1007E0008FEF6896E6E00C94D912A8E1B0E0EBEF49
:1007F000F3E00C94BD1269837A838B839C832D83F1
:100800003E834F83588789E0E82EF12CEC0EFD1EC5
:10081000CE010196B7010E9446068E010F5E1F4F62
:10082000CE010596B8010E9446068985823040F0C7
:100830008989823028F0C701B8010E94BE0601C034
:100840008FEF6896E6E00C94D912A8E1B0E0EBE2F5
:10085000F4E00C94BD1269837A838B839C832D838F
:100860003E834F83588789E0E82EF12CEC0EFD1E65
:10087000CE010196B7010E9446068E010F5E1F4F02
:10088000CE010596B8010E9446068985823040F067
:100890008989823028F0C701B8010E94BE0601C0D4
:1008A00081E06896E6E00C94D912ACE0B0E0EBE5AC
:1008B000F4E00C94C11269837A838B839C83CE010C
:1008C0000196BE016B5F7F4F0E9446068D8182308C
:1008D00061F1823050F1843021F48E81882351F10E
:1008E0002EC02F81388537FD20C06E812F31310514
:1008F0001CF06623F9F023C08EE190E0821B930B7D
:1009000029853A854B855C8504C056954795379572
:1009100027958A95D2F76623B1F05095409530958A
:1009200021953F4F4F4F5F4F0EC020E030E040E039
:1009300050E009C02FEF3FEF4FEF5FE704C020E02A
:1009400030E040E050E8B901CA012C96E2E00C9496
:10095000DD12A8E0B0E0EFEAF4E00C94B9127B01FC
:100960008C01611571058105910519F482E0898377
:1009700060C083E089838EE1C82ED12CDC82CB82DB
:10098000ED82FE820F831887C801B7010E942205FD
:10099000FC013197F7FF3BC0222733272E1B3F0B6B
:1009A00057016801022E04C0D694C794B794A79447
:1009B0000A94D2F740E050E060E070E081E090E01F
:1009C000A0E0B0E004C0880F991FAA1FBB1F2A95A2
:1009D000D2F70197A109B1098E219F21A023B1234C
:1009E0000097A105B10521F041E050E060E070E022
:1009F0004A295B296C297D294D835E836F83788723
:100A00008EE190E08E1B9F0B9C838B8312C03097EE
:100A100081F00E2E04C0EE0CFF1C001F111F0A9463
:100A2000D2F7ED82FE820F831887CE1ADF0ADC82AE
:100A3000CB821A82CE0101960E9471052896EAE0C7
:100A40000C94D512EF92FF920F931F937B018C01B0
:100A500080E0E81680E0F80681E0080780E01807EB
:100A600088F48FEFE816F1040105110531F028F044
:100A700088E090E0A0E0B0E017C080E090E0A0E067
:100A8000B0E012C080E0E81680E0F80680E00807D9
:100A900081E0180728F088E190E0A0E0B0E004C011
:100AA00080E190E0A0E0B0E020E230E040E050E003
:100AB000281B390B4A0B5B0B04C016950795F7945E
:100AC000E7948A95D2F7F701E358FF4F8081281BFE
:100AD000310941095109C9011F910F91FF90EF9010
:100AE0000895DF92EF92FF920F931F93FC01E48031
:100AF000F58006811781D1808081823048F480E0C2
:100B000090E0A0E1B0E0E82AF92A0A2B1B2BA5C04F
:100B1000843009F49FC0823021F4EE24FF24870141
:100B200005C0E114F1040105110519F4E0E0F0E05D
:100B300096C0628173819FEF623879070CF05BC0C9
:100B400022E83FEF261B370B2A3131052CF020E03D
:100B500030E040E050E02AC0B801A701022E04C0F6
:100B600076956795579547950A94D2F781E090E07E
:100B7000A0E0B0E004C0880F991FAA1FBB1F2A95F0
:100B8000D2F70197A109B1098E219F21A023B1239A
:100B90000097A105B10521F081E090E0A0E0B0E070
:100BA0009A01AB01282B392B4A2B5B2BDA01C901A7
:100BB0008F779070A070B07080349105A105B10559
:100BC00039F427FF09C0205C3F4F4F4F5F4F04C0EF
:100BD000215C3F4F4F4F5F4FE0E0F0E02030A0E05E
:100BE0003A07A0E04A07A0E45A0710F0E1E0F0E07D
:100BF00079018A0127C06038710564F5FB01E1586D
:100C0000FF4FD801C7018F779070A070B07080340B
:100C10009105A105B10539F4E7FE0DC080E490E02F
:100C2000A0E0B0E004C08FE390E0A0E0B0E0E80E08
:100C3000F91E0A1F1B1F17FF05C016950795F7948D
:100C4000E794319687E016950795F794E7948A958F
:100C5000D1F705C0EE24FF248701EFEFF0E06E2FFF
:100C6000679566276795902F9F77D794DD24D79453
:100C70008E2F8695492F462B582F5D29B701CA0123
:100C80001F910F91FF90EF90DF900895FC01DB0121
:100C9000408151812281622F6F7770E0221F2227CD
:100CA000221F9381892F880F822B282F30E0991FD4
:100CB0009927991F11969C93119721153105A9F534
:100CC000411551056105710511F482E037C082E8D4
:100CD0009FEF13969C938E9312979A01AB0167E056
:100CE000220F331F441F551F6A95D1F783E08C9361
:100CF0000DC0220F331F441F551F12968D919C91DA
:100D00001397019713969C938E931297203080E04F
:100D1000380780E0480780E4580758F314962D936D
:100D20003D934D935C93179708952F3F310579F4C8
:100D3000411551056105710519F484E08C930895FE
:100D400064FF03C081E08C9312C01C9210C02F5727
:100D5000304013963C932E93129783E08C9387E058
:100D6000440F551F661F771F8A95D1F7706414963C
:100D70004D935D936D937C93179708951F93DC01BA
:100D8000FB019C91923008F447C08081823008F4C6
:100D900043C0943051F411961C91843099F58181AF
:100DA000682F70E0611B71093FC0843021F09230E0
:100DB00031F48230B9F18181882389F12DC01196F7
:100DC0001C9111978230F1F081811817D9F4129695
:100DD0002D913C911397828193818217930794F010
:100DE00028173907BCF014968D919D910D90BC91F8
:100DF000A02D2481358146815781281739074A075C
:100E00005B0718F4112341F00AC082179307A40767
:100E1000B50740F4112319F061E070E005C06FEFF1
:100E20007FEF02C060E070E0CB011F910895DF9377
:100E3000CF9300D000D000D0CDB7DEB78B836C83CA
:100E40008B818695869586958A838B818770898329
:100E50008A81282F30E03E832D838D819E818130D1
:100E6000910509F443C02D813E81223031052CF4D7
:100E70008D819E81009771F0BCC02D813E81223012
:100E8000310509F45FC08D819E818330910509F49D
:100E900085C0AFC08C818130A1F4AAE3B0E0EAE361
:100EA000F0E08081482F8981282F30E081E090E0B8
:100EB000022E02C0880F991F0A94E2F7842B8C93AC
:100EC00098C0AAE3B0E0EAE3F0E08081482F89818E
:100ED000282F30E081E090E0022E02C0880F991F99
:100EE0000A94E2F7809584238C9383C08C818130AF
:100EF000A1F4A7E3B0E0E7E3F0E08081482F898127
:100F0000282F30E081E090E0022E02C0880F991F68
:100F10000A94E2F7842B8C936CC0A7E3B0E0E7E37C
:100F2000F0E08081482F8981282F30E081E090E037
:100F3000022E02C0880F991F0A94E2F7809584233D
:100F40008C9357C08C818130A1F4A4E3B0E0E4E33A
:100F5000F0E08081482F8981282F30E081E090E007
:100F6000022E02C0880F991F0A94E2F7842B8C93FB
:100F700040C0A4E3B0E0E4E3F0E08081482F898141
:100F8000282F30E081E090E0022E02C0880F991FE8
:100F90000A94E2F7809584238C932BC08C81813056
:100FA000A1F4A1E3B0E0E1E3F0E08081482F898182
:100FB000282F30E081E090E0022E02C0880F991FB8
:100FC0000A94E2F7842B8C9314C0A1E3B0E0E1E330
:100FD000F0E08081482F8981282F30E081E090E087
:100FE000022E02C0880F991F0A94E2F7809584238D
:100FF0008C9326960FB6F894DEBF0FBECDBFCF916F
:10100000DF910895DF93CF9300D000D000D0CDB70B
:10101000DEB78B836C838B818695869586958A83D4
:101020008B81877089838A81282F30E03E832D83CE
:101030008D819E818130910509F443C02D813E81CF
:10104000223031052CF48D819E81009771F0BCC057
:101050002D813E812230310509F45FC08D819E8152
:101060008330910509F485C0AFC08C818130A1F433
:10107000ABE3B0E0EBE3F0E08081482F8981282FDB
:1010800030E081E090E0022E02C0880F991F0A94A0
:10109000E2F7842B8C9398C0ABE3B0E0EBE3F0E095
:1010A0008081482F8981282F30E081E090E0022E56
:1010B00002C0880F991F0A94E2F7809584238C93CD
:1010C00083C08C818130A1F4A8E3B0E0E8E3F0E0D4
:1010D0008081482F8981282F30E081E090E0022E26
:1010E00002C0880F991F0A94E2F7842B8C936CC07E
:1010F000A8E3B0E0E8E3F0E08081482F8981282F61
:1011000030E081E090E0022E02C0880F991F0A941F
:10111000E2F7809584238C9357C08C818130A1F4B1
:10112000A5E3B0E0E5E3F0E08081482F8981282F36
:1011300030E081E090E0022E02C0880F991F0A94EF
:10114000E2F7842B8C9340C0A5E3B0E0E5E3F0E048
:101150008081482F8981282F30E081E090E0022EA5
:1011600002C0880F991F0A94E2F7809584238C931C
:101170002BC08C818130A1F4A2E3B0E0E2E3F0E087
:101180008081482F8981282F30E081E090E0022E75
:1011900002C0880F991F0A94E2F7842B8C9314C025
:1011A000A2E3B0E0E2E3F0E08081482F8981282FBC
:1011B00030E081E090E0022E02C0880F991F0A946F
:1011C000E2F7809584238C9326960FB6F894DEBFC1
:1011D0000FBECDBFCF91DF910895DF93CF93CDB7F1
:1011E000DEB727970FB6F894DEBF0FBECDBF8B8357
:1011F0008B818695869586958A838B818770898376
:101200008A81282F30E03E832D834D815E814130DD
:10121000510549F18D819E818230910534F42D81F3
:101220003E812115310561F057C04D815E8142300C
:10123000510561F18D819E8183309105D1F14CC0C2
:10124000E9E3F0E08081282F30E08981882F90E069
:10125000A90102C0559547958A95E2F7CA01582F12
:1012600051705C833AC0E6E3F0E08081282F30E0E3
:101270008981882F90E0A90102C0559547958A95EC
:10128000E2F7CA01582F51705C8327C0E3E3F0E016
:101290008081282F30E08981882F90E0A90102C049
:1012A000559547958A95E2F7CA01582F51705C838E
:1012B00014C0E0E3F0E08081282F30E08981882F9E
:1012C00090E0A90102C0559547958A95E2F7CA01B9
:1012D000582F51705C8301C002C08C818F838F8135
:1012E00027960FB6F894DEBF0FBECDBFCF91DF912A
:1012F0000895DF93CF9300D000D00F92CDB7DEB723
:101300008B838B818695869586958A838B81877062
:1013100089838A81282F30E03D832C838C819D81B5
:101320008130910549F12C813D81223031052CF429
:101330008C819D81009761F05AC02C813D812230C3
:10134000310571F18C819D8183309105E9F14FC0A8
:10135000ABE3B0E0EBE3F0E08081482F8981282FF8
:1013600030E081E090E0022E02C0880F991F0A94BD
:10137000E2F784278C933BC0A8E3B0E0E8E3F0E019
:101380008081482F8981282F30E081E090E0022E73
:1013900002C0880F991F0A94E2F784278C9327C014
:1013A000A5E3B0E0E5E3F0E08081482F8981282FB4
:1013B00030E081E090E0022E02C0880F991F0A946D
:1013C000E2F784278C9313C0A2E3B0E0E2E3F0E0FD
:1013D0008081482F8981282F30E081E090E0022E23
:1013E00002C0880F991F0A94E2F784278C930F900C
:1013F0000F900F900F900F90CF91DF910895DF9392
:10140000CF93CDB7DEB7E8970FB6F894DEBF0FBE27
:10141000CDBF84E061E00E94170785E061E00E9493
:10142000170786E061E00E94170787E061E00E94ED
:10143000170788E061E00E94170789E061E00E94D9
:10144000170782E30E94C50D80E090E0A0E0B0E4C1
:101450008DAB9EABAFABB8AF6DA97EA98FA998AD90
:1014600020E030E04AEF54E40E941F02DC01CB018F
:1014700089AB9AABABABBCAB69A97AA98BA99CA988
:1014800020E030E040E85FE30E94250488232CF44C
:1014900081E090E098AB8FA73FC069A97AA98BA99A
:1014A0009CA920E03FEF4FE757E40E94C5031816C0
:1014B0004CF56DA97EA98FA998AD20E030E040E2FF
:1014C00051E40E941F02DC01CB01BC01CD010E944E
:1014D0004900DC01CB0198AB8FA70FC088EC90E0EE
:1014E0009EA78DA78DA59EA50197F1F79EA78DA715
:1014F0008FA598A9019798AB8FA78FA598A900975A
:1015000069F714C069A97AA98BA99CA90E9449000E
:10151000DC01CB0198AB8FA78FA598A99CA78BA7BF
:101520008BA59CA50197F1F79CA78BA788E20E9449
:10153000C50D80E090E0A0E0B0E48FA398A7A9A734
:10154000BAA76FA178A589A59AA520E030E04AEF57
:1015500054E40E941F02DC01CB018BA39CA3ADA32A
:10156000BEA36BA17CA18DA19EA120E030E040E84C
:101570005FE30E94250488232CF481E090E09AA385
:1015800089A33FC06BA17CA18DA19EA120E03FEF6C
:101590004FE757E40E94C50318164CF56FA178A5D4
:1015A00089A59AA520E030E040E251E40E941F02A4
:1015B000DC01CB01BC01CD010E944900DC01CB0163
:1015C0009AA389A30FC088EC90E098A38F8F8F8D8A
:1015D00098A10197F1F798A38F8F89A19AA10197FC
:1015E0009AA389A389A19AA1009769F714C06BA156
:1015F0007CA18DA19EA10E944900DC01CB019AA390
:1016000089A389A19AA19E8F8D8F8D8D9E8D019723
:10161000F1F79E8F8D8F8CE00E94C50D80E090E0E9
:10162000A0E0B0E4898F9A8FAB8FBC8F698D7A8DE3
:101630008B8D9C8D20E030E04AEF54E40E941F0225
:10164000DC01CB018D8B9E8BAF8BB88F6D897E8932
:101650008F89988D20E030E040E85FE30E94250408
:1016600088232CF481E090E09C8B8B8B3FC06D89AC
:101670007E898F89988D20E03FEF4FE757E40E94E5
:10168000C50318164CF5698D7A8D8B8D9C8D20E0E5
:1016900030E040E251E40E941F02DC01CB01BC01BA
:1016A000CD010E944900DC01CB019C8B8B8B0FC0CC
:1016B00088EC90E09A8B898B89899A890197F1F758
:1016C0009A8B898B8B899C8901979C8B8B8B8B89BF
:1016D0009C89009769F714C06D897E898F89988DE0
:1016E0000E944900DC01CB019C8B8B8B8B899C89F0
:1016F000988B8F878F8598890197F1F7988B8F87C3
:1017000081E00E94C50D80E090E0A0E0B0E48B870E
:101710009C87AD87BE876B857C858D859E8520E007
:1017200030E04AEF54E40E941F02DC01CB018F83BA
:101730009887A987BA876F81788589859A8520E0FF
:1017400030E040E85FE30E94250488232CF481E028
:1017500090E09E838D833FC06F81788589859A85CF
:1017600020E03FEF4FE757E40E94C50318164CF501
:101770006B857C858D859E8520E030E040E251E4DC
:101780000E941F02DC01CB01BC01CD010E94490077
:10179000DC01CB019E838D830FC088EC90E09C839D
:1017A0008B838B819C810197F1F79C838B838D8147
:1017B0009E8101979E838D838D819E81009769F71D
:1017C00014C06F81788589859A850E944900DC0163
:1017D000CB019E838D838D819E819A8389838981AC
:1017E0009A810197F1F79A838983E8960FB6F89466
:1017F000DEBF0FBECDBFCF91DF910895DF93CF93B2
:10180000CDB7DEB7AB970FB6F894DEBF0FBECDBF36
:101810008BA788E061E00E94020889E061E00E94F5
:1018200002088BA582958F70982F917084E0692FA4
:101830000E9402088BA5829586958770982F9170DB
:1018400085E0692F0E9402088BA582958695869572
:101850008370982F917086E0692F0E9402088BA5F3
:10186000982F991F9927991F87E0692F0E940208D6
:1018700080E090E0A0E8B0E48FA398A7A9A7BAA75A
:101880006FA178A589A59AA520E030E04AEF54E43D
:101890000E941F02DC01CB018BA39CA3ADA3BEA3BE
:1018A0006BA17CA18DA19EA120E030E040E85FE328
:1018B0000E94250488232CF481E090E09AA389A358
:1018C0003FC06BA17CA18DA19EA120E03FEF4FE71F
:1018D00057E40E94C50318164CF56FA178A589A599
:1018E0009AA520E030E040E251E40E941F02DC01B2
:1018F000CB01BC01CD010E944900DC01CB019AA3C0
:1019000089A30FC088EC90E098A38F8F8F8D98A14A
:101910000197F1F798A38F8F89A19AA101979AA3B4
:1019200089A389A19AA1009769F714C06BA17CA132
:101930008DA19EA10E944900DC01CB019AA389A33D
:1019400089A19AA19E8F8D8F8D8D9E8D0197F1F724
:101950009E8F8D8F89E060E00E94020880E090E019
:10196000A0E0B0E4898F9A8FAB8FBC8F698D7A8DA0
:101970008B8D9C8D20E030E04AEF54E40E941F02E2
:10198000DC01CB018D8B9E8BAF8BB88F6D897E89EF
:101990008F89988D20E030E040E85FE30E942504C5
:1019A00088232CF481E090E09C8B8B8B3FC06D8969
:1019B0007E898F89988D20E03FEF4FE757E40E94A2
:1019C000C50318164CF5698D7A8D8B8D9C8D20E0A2
:1019D00030E040E251E40E941F02DC01CB01BC0177
:1019E000CD010E944900DC01CB019C8B8B8B0FC089
:1019F00088EC90E09A8B898B89899A890197F1F715
:101A00009A8B898B8B899C8901979C8B8B8B8B897B
:101A10009C89009769F714C06D897E898F89988D9C
:101A20000E944900DC01CB019C8B8B8B8B899C89AC
:101A3000988B8F878F8598890197F1F7988B8F877F
:101A400089E061E00E9402088BA5982F917084E0E4
:101A5000692F0E9402088BA58695982F917085E0CA
:101A6000692F0E9402088BA586958695982F917004
:101A700086E0692F0E9402088BA58695869586953B
:101A8000982F917087E0692F0E94020880E090E013
:101A9000A0E8B0E48B879C87AD87BE876B857C858B
:101AA0008D859E8520E030E04AEF54E40E941F02BD
:101AB000DC01CB018F839887A987BA876F817885EE
:101AC00089859A8520E030E040E85FE30E942504A4
:101AD00088232CF481E090E09E838D833FC06F814A
:101AE000788589859A8520E03FEF4FE757E40E948B
:101AF000C50318164CF56B857C858D859E8520E089
:101B000030E040E251E40E941F02DC01CB01BC0145
:101B1000CD010E944900DC01CB019E838D830FC063
:101B200088EC90E09C838B838B819C810197F1F7FB
:101B30009C838B838D819E8101979E838D838D8174
:101B40009E81009769F714C06F81788589859A8591
:101B50000E944900DC01CB019E838D838D819E8193
:101B60009A83898389819A810197F1F79A8389837E
:101B700089E060E00E940208AB960FB6F894DEBFE1
:101B80000FBECDBFCF91DF910895DF93CF93CDB737
:101B9000DEB7AB970FB6F894DEBF0FBECDBF8BA7F5
:101BA00088E060E00E94020889E061E00E9402088B
:101BB0008BA582958F70982F917084E0692F0E9479
:101BC00002088BA5829586958770982F917085E085
:101BD000692F0E9402088BA5829586958695837051
:101BE000982F917086E0692F0E9402088BA5982F8C
:101BF000991F9927991F87E0692F0E94020880E0AA
:101C000090E0A0E8B0E48FA398A7A9A7BAA76FA116
:101C100078A589A59AA520E030E04AEF54E40E9417
:101C20001F02DC01CB018BA39CA3ADA3BEA36BA1C0
:101C30007CA18DA19EA120E030E040E85FE30E94FE
:101C4000250488232CF481E090E09AA389A33FC067
:101C50006BA17CA18DA19EA120E03FEF4FE757E44F
:101C60000E94C50318164CF56FA178A589A59AA501
:101C700020E030E040E251E40E941F02DC01CB0191
:101C8000BC01CD010E944900DC01CB019AA389A3CC
:101C90000FC088EC90E098A38F8F8F8D98A101974B
:101CA000F1F798A38F8F89A19AA101979AA389A38D
:101CB00089A19AA1009769F714C06BA17CA18DA19D
:101CC0009EA10E944900DC01CB019AA389A389A1AE
:101CD0009AA19E8F8D8F8D8D9E8D0197F1F79E8F8E
:101CE0008D8F89E060E00E94020880E090E0A0E033
:101CF000B0E4898F9A8FAB8FBC8F698D7A8D8B8D75
:101D00009C8D20E030E04AEF54E40E941F02DC0189
:101D1000CB018D8B9E8BAF8BB88F6D897E898F8920
:101D2000988D20E030E040E85FE30E94250488239E
:101D30002CF481E090E09C8B8B8B3FC06D897E8979
:101D40008F89988D20E03FEF4FE757E40E94C5034D
:101D500018164CF5698D7A8D8B8D9C8D20E030E0C6
:101D600040E251E40E941F02DC01CB01BC01CD0125
:101D70000E944900DC01CB019C8B8B8B0FC088EC4F
:101D800090E09A8B898B89899A890197F1F79A8BD0
:101D9000898B8B899C8901979C8B8B8B8B899C89E8
:101DA000009769F714C06D897E898F89988D0E948C
:101DB0004900DC01CB019C8B8B8B8B899C89988B98
:101DC0008F878F8598890197F1F7988B8F8789E0A6
:101DD00061E00E9402088BA5982F917084E0692F22
:101DE0000E9402088BA58695982F917085E0692F37
:101DF0000E9402088BA586958695982F917086E0A3
:101E0000692F0E9402088BA5869586958695982F46
:101E1000917087E0692F0E94020880E090E0A0E0C6
:101E2000B0E48B879C87AD87BE876B857C858D856D
:101E30009E8520E030E04AEF54E40E941F02DC015E
:101E4000CB018F839887A987BA876F817885898529
:101E50009A8520E030E040E85FE30E942504882373
:101E60002CF481E090E09E838D833FC06F81788564
:101E700089859A8520E03FEF4FE757E40E94C5032C
:101E800018164CF56B857C858D859E8520E030E0AD
:101E900040E251E40E941F02DC01CB01BC01CD01F4
:101EA0000E944900DC01CB019E838D830FC088EC2A
:101EB00090E09C838B838B819C810197F1F79C83BD
:101EC0008B838D819E8101979E838D838D819E81E1
:101ED000009769F714C06F81788589859A850E947B
:101EE0004900DC01CB019E838D838D819E819A8385
:101EF000898389819A810197F1F79A83898389E09F
:101F000060E00E940208AB960FB6F894DEBF0FBEE9
:101F1000CDBFCF91DF910895DF93CF9300D00F9283
:101F2000CDB7DEB79B838A83198220C08981803137
:101F300021F481E060E00E94BF0F8981282F30E00A
:101F40008A819B81FC01E20FF31F8081882389F045
:101F50008981282F30E08A819B81FC01E20FF31FE9
:101F600080810E94FE0B89818F5F89838981803205
:101F7000E8F20F900F900F90CF91DF910895DF93CB
:101F8000CF9300D000D0CDB7DEB789836A83898133
:101F9000282F30E03C832B838B819C81009739F084
:101FA0002B813C812130310509F472C0E0C08A8167
:101FB000882321F480E80E94C50DD9C08A81813030
:101FC00021F481E80E94C50DD2C08A81823021F4BB
:101FD00082E80E94C50DCBC08A81833021F483E85A
:101FE0000E94C50DC4C08A81843021F484E80E9417
:101FF000C50DBDC08A81853021F485E80E94C50DDC
:10200000B6C08A81863021F486E80E94C50DAFC033
:102010008A81873021F487E80E94C50DA8C08A8193
:10202000883021F488E80E94C50DA1C08A818930DA
:1020300021F489E80E94C50D9AC08A818A3021F472
:102040008AE80E94C50D93C08A818B3021F48BE809
:102050000E94C50D8CC08A818C3021F48CE80E94CE
:10206000C50D85C08A818D3021F48DE80E94C50D93
:102070007EC08A818E3021F48EE80E94C50D77C023
:102080008A818F3009F073C08FE80E94C50D6FC040
:102090008A81882321F480EC0E94C50D68C08A8162
:1020A000813021F481EC0E94C50D61C08A818230AB
:1020B00021F482EC0E94C50D5AC08A81833021F43C
:1020C00083EC0E94C50D53C08A81843021F484ECD6
:1020D0000E94C50D4CC08A81853021F485EC0E9498
:1020E000C50D45C08A81863021F486EC0E94C50D5D
:1020F0003EC08A81873021F487EC0E94C50D37C02D
:102100008A81883021F488EC0E94C50D30C08A8114
:10211000893021F489EC0E94C50D29C08A818A305A
:1021200021F48AEC0E94C50D22C08A818B3021F4F3
:102130008BEC0E94C50D1BC08A818C3021F48CEC85
:102140000E94C50D14C08A818D3021F48DEC0E944F
:10215000C50D0DC08A818E3021F48EEC0E94C50D14
:1021600006C08A818F3019F48FEC0E94C50D0F9044
:102170000F900F900F90CF91DF910895DF93CF9341
:1021800000D000D000D0CDB7DEB780E090E0A0E076
:10219000B0E08B839C83AD83BE831A8219820E9438
:1021A000FF09AFE4B0E0EFE4F0E080818D7F8C9335
:1021B000AFE4B0E0EFE4F0E080818E7F8C93AEE49A
:1021C000B0E0EEE4F0E080818F7E8C93AEE4B0E08E
:1021D000EEE4F0E08081877F8C93AEE4B0E0EEE443
:1021E000F0E0808180648C93AEE4B0E0EEE4F0E057
:1021F00080818B7F8C93AEE4B0E0EEE4F0E08081F0
:102200008D7F8C93AEE4B0E0EEE4F0E080818160FD
:102210008C93A9E5B0E0E9E5F0E0808180628C93E1
:10222000A9E5B0E0E9E5F0E0808184608C93AFE55A
:10223000B0E0EFE5F0E0808180688C938EE160E0B3
:102240000E9417078091810190918201A0918301E2
:10225000B0918401209185013091860140918701E0
:1022600050918801BC01CD010E94F201DC01CB013B
:102270008B839C83AD83BE8360E070E080E89FE346
:102280002B813C814D815E810E941903DC01CB01D1
:10229000BC01CD010E944900DC01CB018A83809101
:1022A000810190918201A0918301B0918401BC01D0
:1022B000CD012B813C814D815E810E941903DC019F
:1022C000CB01BC01CD0120E030E048EC52E40E949B
:1022D0001F02DC01CB01BC01CD010E944900DC01E1
:1022E000CB01898380E060E00E94BF0F80E690E030
:1022F0000E948C0F8A8194E6692F0E94A512805D4E
:102300000E94FE0B8A8194E6692F0E94A512892FF4
:102310009AE0692F0E94A512805D0E94FE0B8A81BF
:1023200094E6692F0E94A512892F9AE0692F0E94D6
:10233000A512892F805D0E94FE0B87E690E00E9427
:102340008C0F81E060E00E94BF0F8BE690E00E945E
:102350008C0F898194E6692F0E94A512805D0E94EE
:10236000FE0B898194E6692F0E94A512892F9AE0BD
:10237000692F0E94A512805D0E94FE0B898194E660
:10238000692F0E94A512892F9AE0692F0E94A51239
:10239000892F805D0E94FE0B82E790E00E948C0FE7
:1023A00051CF1F920F920FB60F9211242F933F938C
:1023B0004F935F936F937F938F939F93AF93BF934D
:1023C000EF93FF93DF93CF93CDB7DEB780917D017D
:1023D0008130A9F410927D01ECE4F0E011821082CA
:1023E000AEE4B0E0EEE4F0E080818F7B8C9381E09E
:1023F00080937E011092800110927F0176C08091BF
:102400007E018130C9F5AEE4B0E0EEE4F0E0808119
:1024100080648C9310927E01E6E4F0E020813181AB
:1024200080917F0190918001A901481B590BCA013D
:10243000CC01A0E0B0E0BC01CD010E94A904DC0108
:10244000CB01BC01CD012DEB37E346E054E30E9404
:102450001F02DC01CB018093810190938201A09344
:102460008301B09384011092800110927F01ECE40B
:10247000F0E01182108239C0AEE4B0E0EEE4F0E0AA
:1024800080818F7B8C9381E080937E01E6E4F0E095
:102490002081318180917F0190918001A901481BA9
:1024A000590BCA01CC01A0E0B0E0BC01CD010E94F3
:1024B000A904DC01CB01BC01CD012DEB37E346E0E3
:1024C00054E30E941F02DC01CB01809385019093AD
:1024D0008601A0938701B093880110928001109229
:1024E0007F01ECE4F0E011821082CF91DF91FF9147
:1024F000EF91BF91AF919F918F917F916F915F917C
:102500004F913F912F910F900FBE0F901F901895F4
:102510001F920F920FB60F9211248F939F93DF9308
:10252000CF93CDB7DEB780917F0190918001019666
:102530009093800180937F01CF91DF919F918F9144
:102540000F900FBE0F901F901895991B79E004C053
:10255000991F961708F0961B881F7A95C9F78095E2
:1025600008952F923F924F925F926F927F928F9237
:102570009F92AF92BF92CF92DF92EF92FF920F9312
:102580001F93CF93DF93CDB7DEB7CA1BDB0B0FB61C
:10259000F894DEBF0FBECDBF09942A8839884888D9
:1025A0005F846E847D848C849B84AA84B984C8846F
:1025B000DF80EE80FD800C811B81AA81B981CE0F66
:1025C000D11D0FB6F894DEBF0FBECDBFED0108954B
:0425D000F894FFCFAD
:1025D400467265713D200020487A00447574793D47
:1025E400200020250000000000000000000001027F
:1025F400020303030304040404040404040505059A
:102604000505050505050505050505050506060673
:102614000606060606060606060606060606060656
:102624000606060606060606060606060607070743
:102634000707070707070707070707070707070726
:102644000707070707070707070707070707070716
:102654000707070707070707070707070707070706
:1026640007070707070707070707070707080808F3
:1026740008080808080808080808080808080808D6
:1026840008080808080808080808080808080808C6
:1026940008080808080808080808080808080808B6
:1026A40008080808080808080808080808080808A6
:1026B4000808080808080808080808080808080896
:1026C4000808080808080808080808080808080886
:1026D4000808080808080808080808080808080876
:0E26E40008080808080808080808080808017F
:00000001FF
