:100000000C942A000C943F000C943F000C943F0089
:100010000C943F000C943F000C943F000C943F0064
:100020000C943F000C943F000C943F000C943F0054
:100030000C943F000C943F000C943F000C943F0044
:100040000C943F000C943F000C943F000C943F0034
:100050000C943F0011241FBECFE5D8E0DEBFCDBF1A
:1000600010E0A0E6B0E0EAE1F3E202C005900D92F4
:10007000A837B107D9F70E9434110C948B110C9456
:100080000000EF92FF920F931F937B018C0120E001
:1000900030E040E05FE40E94410388238CF0C80117
:1000A000B70120E030E040E05FE40E94B9010E9427
:1000B000A1039B01AC01205030404040504806C095
:1000C000C801B7010E94A1039B01AC01B901CA019B
:1000D0001F910F91FF90EF900895A0E0B0E0E3E74B
:1000E000F0E00C945411DC012B01FA019C91923048
:1000F00008F439C1EB018881823008F433C19430AF
:1001000069F4843009F02FC111969C91119789816F
:10011000981709F428C1AFE6B0E025C1843009F48E
:1001200021C18230A9F4923009F01DC19A01AD01BC
:1001300088E0EA010990AE01E90109929E0181502F
:10014000C1F7E201898111969C918923818308C1BD
:10015000923009F407C112962D903C901397EB0151
:100160008A819B811496AD90BD90CD90DC901797BD
:10017000EC80FD800E811F819101281B390BB90194
:1001800037FF04C066277727621B730B6032710547
:100190000CF061C0121613066CF537014801062EEB
:1001A00004C096948794779467940A94D2F721E0D8
:1001B00030E040E050E004C0220F331F441F551FC1
:1001C0006A95D2F721503040404050402E213F21C7
:1001D00040235123211531054105510521F021E02E
:1001E00030E040E050E079018A01E628F72808294C
:1001F00019293CC0232BD1F1260E371E35014601AB
:10020000062E04C096948794779467940A94D2F744
:1002100021E030E040E050E004C0220F331F441FD3
:10022000551F6A95D2F721503040404050402A2156
:100230003B214C215D21211531054105510521F05E
:1002400021E030E040E050E059016A01A628B728DB
:10025000C828D9280BC0821593052CF01C01AA24AC
:10026000BB24650103C0EE24FF24870111969C91F5
:10027000D20111968C91981709F445C0992339F051
:10028000A80197012A193B094C095D0906C0A6017E
:1002900095012E193F09400B510B57FD08C01182E3
:1002A0003382228224833583468357831DC081E0B5
:1002B00081833382228288279927DC01821B930B5A
:1002C000A40BB50B84839583A683B7830DC0220F3F
:1002D000331F441F551F24833583468357838281F0
:1002E000938101979383828324813581468157814D
:1002F000DA01C9010197A109B1098F5F9F4FAF4F83
:10030000BF4328F30BC0918333822282EA0CFB1C8B
:100310000C1D1D1DE482F5820683178383E0808314
:10032000248135814681578157FF1AC0C901AA2708
:1003300097FDA095BA2F81709070A070B0705695FF
:10034000479537952795822B932BA42BB52B848328
:100350009583A683B7838281938101969383828359
:10036000DF0101C0D201CD01CDB7DEB7E2E10C94CF
:100370007011A0E2B0E0EFEBF1E00C946011698342
:100380007A838B839C832D833E834F835887E9E058
:10039000EE2EF12CEC0EFD1ECE010196B7010E944F
:1003A000CA048E010F5E1F4FCE010596B8010E9450
:1003B000CA048A8991E089278A8BC701B801AE01F6
:1003C000475E5F4F0E946D000E94F503A096E6E035
:1003D0000C947C11A0E2B0E0E0EFF1E00C9460112D
:1003E00069837A838B839C832D833E834F835887D5
:1003F000F9E0EF2EF12CEC0EFD1ECE010196B701B7
:100400000E94CA048E010F5E1F4FCE010596B801EF
:100410000E94CA04C701B801AE01475E5F4F0E9447
:100420006D000E94F503A096E6E00C947C11A0E21A
:10043000B0E0EDE1F2E00C94541169837A838B8390
:100440009C832D833E834F835887CE010196BE0146
:10045000675F7F4F0E94CA04CE010596BE016F5EA2
:100460007F4F0E94CA049985923088F08989823032
:10047000C8F0943019F4823051F404C0843029F467
:10048000923081F48FE690E0C6C0923049F420E0CB
:100490009A858A89981321E02A87CE010996BBC0E4
:1004A000823049F420E09A858A89981321E02A8BCA
:1004B000CE014196B0C02D843E844F8458886D880B
:1004C0007E888F88988CEE24FF248701AA24BB2481
:1004D000650140E050E060E070E0E0E0F0E0C10184
:1004E00081709070892BE9F0E60CF71C081D191D2E
:1004F0009A01AB012A0D3B1D4C1D5D1D80E090E073
:10050000A0E0B0E0E614F7040805190520F481E046
:1005100090E0A0E0B0E0BA01A901480F591F6A1F9E
:100520007B1FAA0CBB1CCC1CDD1C97FE08C081E005
:1005300090E0A0E0B0E0A82AB92ACA2ADB2A3196C6
:10054000E032F10549F0660C771C881C991C569422
:10055000479437942794C3CFFA85EA892B893C893D
:100560008B859C85280F391F2E5F3F4F17C0CA010E
:1005700081709070892B61F016950795F794E79438
:1005800080E090E0A0E0B0E8E82AF92A0A2B1B2BD3
:1005900076956795579547952F5F3F4F77FDE7CF46
:1005A0000CC0440F551F661F771F17FD4160EE0CEE
:1005B000FF1C001F111F21503040403090E05907B0
:1005C00090E0690790E4790760F32B8F3C8FDB01A3
:1005D000CA018F779070A070B07080349105A1052A
:1005E000B10561F447FD0AC0E114F10401051105EC
:1005F00029F0405C5F4F6F4F7F4F40781A8EFE1797
:1006000011F081E08A8F4D8F5E8F6F8F78A383E02A
:10061000898FCE0149960E94F503A096E2E10C94E1
:100620007011A8E1B0E0E7E1F3E00C946011698398
:100630007A838B839C832D833E834F83588789E005
:10064000E82EF12CEC0EFD1ECE010196B7010E94A2
:10065000CA048E010F5E1F4FCE010596B8010E949D
:10066000CA048985823040F08989823028F0C70128
:10067000B8010E94420501C08FEF6896E6E00C9435
:100680007C11A8E1B0E0E7E4F3E00C946011698329
:100690007A838B839C832D833E834F83588789E0A5
:1006A000E82EF12CEC0EFD1ECE010196B7010E9442
:1006B000CA048E010F5E1F4FCE010596B8010E943D
:1006C000CA048985823040F08989823028F0C701C8
:1006D000B8010E94420501C08FEF6896E6E00C94D5
:1006E0007C11A8E1B0E0E7E7F3E00C9460116983C6
:1006F0007A838B839C832D833E834F83588789E045
:10070000E82EF12CEC0EFD1ECE010196B7010E94E1
:10071000CA048E010F5E1F4FCE010596B8010E94DC
:10072000CA048985823040F08989823028F0C70167
:10073000B8010E94420501C081E06896E6E00C9491
:100740007C11ACE0B0E0E7EAF3E00C94641169835B
:100750007A838B839C83CE010196BE016B5F7F4FB2
:100760000E94CA048D81823061F1823050F1843060
:1007700021F48E81882351F12EC02F81388537FDD9
:1007800020C06E812F3131051CF06623F9F023C0A3
:100790008EE190E0821B930B29853A854B855C8521
:1007A00004C056954795379527958A95D2F76623C5
:1007B000B1F050954095309521953F4F4F4F5F4F89
:1007C0000EC020E030E040E050E009C02FEF3FEFE6
:1007D0004FEF5FE704C020E030E040E050E8B901AF
:1007E000CA012C96E2E00C948011DF92EF92FF9206
:1007F0000F931F93FC01E480F58006811781D1805F
:100800008081823048F480E090E0A0E1B0E0E82A06
:10081000F92A0A2B1B2BA5C0843009F49FC0823013
:1008200021F4EE24FF24870105C0E114F104010541
:10083000110519F4E0E0F0E096C0628173819FEF4A
:10084000623879070CF05BC022E83FEF261B370BBC
:100850002A3131052CF020E030E040E050E02AC0A1
:10086000B801A701022E04C0769567955795479564
:100870000A94D2F781E090E0A0E0B0E004C0880FD5
:10088000991FAA1FBB1F2A95D2F70197A109B10989
:100890008E219F21A023B1230097A105B10521F04E
:1008A00081E090E0A0E0B0E09A01AB01282B392B69
:1008B0004A2B5B2BDA01C9018F779070A070B07062
:1008C00080349105A105B10539F427FF09C0205CEA
:1008D0003F4F4F4F5F4F04C0215C3F4F4F4F5F4F23
:1008E000E0E0F0E02030A0E03A07A0E04A07A0E412
:1008F0005A0710F0E1E0F0E079018A0127C0603882
:10090000710564F5FB01E158FF4FD801C7018F77EE
:100910009070A070B07080349105A105B10539F4D4
:10092000E7FE0DC080E490E0A0E0B0E004C08FE3FB
:1009300090E0A0E0B0E0E80EF91E0A1F1B1F17FFB1
:1009400005C016950795F794E794319687E01695BC
:100950000795F794E7948A95D1F705C0EE24FF2414
:100960008701EFEFF0E06E2F679566276795902F70
:100970009F77D794DD24D7948E2F8695492F462BC9
:10098000582F5D29B701CA011F910F91FF90EF9079
:10099000DF900895FC01DB01408151812281622FAB
:1009A0006F7770E0221F2227221F9381892F880FE3
:1009B000822B282F30E0991F9927991F11969C931D
:1009C000119721153105A9F54115510561057105ED
:1009D00011F482E037C082E89FEF13969C938E93C8
:1009E00012979A01AB0167E0220F331F441F551F76
:1009F0006A95D1F783E08C930DC0220F331F441FFB
:100A0000551F12968D919C911397019713969C9365
:100A10008E931297203080E0380780E0480780E40A
:100A2000580758F314962D933D934D935C93179765
:100A300008952F3F310579F4411551056105710580
:100A400019F484E08C93089564FF03C081E08C93D3
:100A500012C01C9210C02F57304013963C932E9317
:100A6000129783E08C9387E0440F551F661F771F12
:100A70008A95D1F7706414964D935D936D937C9332
:100A8000179708951F93DC01FB019C91923008F4A5
:100A900047C08081823008F443C0943051F41196ED
:100AA0001C91843099F58181682F70E0611B710978
:100AB0003FC0843021F0923031F48230B9F181812D
:100AC000882389F12DC011961C9111978230F1F085
:100AD00081811817D9F412962D913C911397828138
:100AE00093818217930794F028173907BCF0149666
:100AF0008D919D910D90BC91A02D248135814681D1
:100B00005781281739074A075B0718F4112341F06A
:100B10000AC082179307A407B50740F4112319F000
:100B200061E070E005C06FEF7FEF02C060E070E051
:100B3000CB011F910895DF93CF9300D000D000D058
:100B4000CDB7DEB78B836C838B8186958695869532
:100B50008A838B81877089838A81282F30E03E8346
:100B60002D838D819E818130910509F443C02D81B3
:100B70003E81223031052CF48D819E81009771F0E9
:100B8000BCC02D813E812230310509F45FC08D81CA
:100B90009E818330910509F485C0AFC08C8181307E
:100BA000A1F4AAE3B0E0EAE3F0E08081482F898174
:100BB000282F30E081E090E0022E02C0880F991FBC
:100BC0000A94E2F7842B8C9398C0AAE3B0E0EAE39E
:100BD000F0E08081482F8981282F30E081E090E08B
:100BE000022E02C0880F991F0A94E2F78095842391
:100BF0008C9383C08C818130A1F4A7E3B0E0E7E35C
:100C0000F0E08081482F8981282F30E081E090E05A
:100C1000022E02C0880F991F0A94E2F7842B8C934E
:100C20006CC0A7E3B0E0E7E3F0E08081482F898162
:100C3000282F30E081E090E0022E02C0880F991F3B
:100C40000A94E2F7809584238C9357C08C8181307D
:100C5000A1F4A4E3B0E0E4E3F0E08081482F8981CF
:100C6000282F30E081E090E0022E02C0880F991F0B
:100C70000A94E2F7842B8C9340C0A4E3B0E0E4E351
:100C8000F0E08081482F8981282F30E081E090E0DA
:100C9000022E02C0880F991F0A94E2F780958423E0
:100CA0008C932BC08C818130A1F4A1E3B0E0E1E30F
:100CB000F0E08081482F8981282F30E081E090E0AA
:100CC000022E02C0880F991F0A94E2F7842B8C939E
:100CD00014C0A1E3B0E0E1E3F0E08081482F898116
:100CE000282F30E081E090E0022E02C0880F991F8B
:100CF0000A94E2F7809584238C9326960FB6F89495
:100D0000DEBF0FBECDBFCF91DF910895DF93CF93AC
:100D100000D000D000D0CDB7DEB78B836C838B8141
:100D20008695869586958A838B81877089838A814B
:100D3000282F30E03E832D838D819E818130910567
:100D400009F443C02D813E81223031052CF48D8180
:100D50009E81009771F0BCC02D813E81223031050B
:100D600009F45FC08D819E818330910509F485C0AF
:100D7000AFC08C818130A1F4ABE3B0E0EBE3F0E0F5
:100D80008081482F8981282F30E081E090E0022E79
:100D900002C0880F991F0A94E2F7842B8C9398C0A5
:100DA000ABE3B0E0EBE3F0E08081482F8981282FAE
:100DB00030E081E090E0022E02C0880F991F0A9473
:100DC000E2F7809584238C9383C08C818130A1F4D9
:100DD000A8E3B0E0E8E3F0E08081482F8981282F84
:100DE00030E081E090E0022E02C0880F991F0A9443
:100DF000E2F7842B8C936CC0A8E3B0E0E8E3F0E06A
:100E00008081482F8981282F30E081E090E0022EF8
:100E100002C0880F991F0A94E2F7809584238C936F
:100E200057C08C818130A1F4A5E3B0E0E5E3F0E0A8
:100E30008081482F8981282F30E081E090E0022EC8
:100E400002C0880F991F0A94E2F7842B8C9340C04C
:100E5000A5E3B0E0E5E3F0E08081482F8981282F09
:100E600030E081E090E0022E02C0880F991F0A94C2
:100E7000E2F7809584238C932BC08C818130A1F480
:100E8000A2E3B0E0E2E3F0E08081482F8981282FDF
:100E900030E081E090E0022E02C0880F991F0A9492
:100EA000E2F7842B8C9314C0A2E3B0E0E2E3F0E01D
:100EB0008081482F8981282F30E081E090E0022E48
:100EC00002C0880F991F0A94E2F7809584238C93BF
:100ED00026960FB6F894DEBF0FBECDBFCF91DF913F
:100EE0000895DF93CF93CDB7DEB727970FB6F89469
:100EF000DEBF0FBECDBF8B838B8186958695869591
:100F00008A838B81877089838A81282F30E03E8392
:100F10002D834D815E814130510549F18D819E8146
:100F20008230910534F42D813E812115310561F027
:100F300057C04D815E814230510561F18D819E81A6
:100F400083309105D1F14CC0E9E3F0E08081282F96
:100F500030E08981882F90E0A90102C0559547951E
:100F60008A95E2F7CA01582F51705C833AC0E6E3D4
:100F7000F0E08081282F30E08981882F90E0A9015E
:100F800002C0559547958A95E2F7CA01582F5170CE
:100F90005C8327C0E3E3F0E08081282F30E0898183
:100FA000882F90E0A90102C0559547958A95E2F7F0
:100FB000CA01582F51705C8314C0E0E3F0E08081D7
:100FC000282F30E08981882F90E0A90102C0559533
:100FD00047958A95E2F7CA01582F51705C8301C08A
:100FE00002C08C818F838F8127960FB6F894DEBF65
:100FF0000FBECDBFCF91DF910895DF93CF9300D087
:1010000000D00F92CDB7DEB78B838B818695869506
:1010100086958A838B81877089838A81282F30E027
:101020003D832C838C819D818130910549F12C81F8
:101030003D81223031052CF48C819D81009761F037
:101040005AC02C813D812230310571F18C819D8106
:1010500083309105E9F14FC0ABE3B0E0EBE3F0E0A2
:101060008081482F8981282F30E081E090E0022E96
:1010700002C0880F991F0A94E2F784278C933BC023
:10108000A8E3B0E0E8E3F0E08081482F8981282FD1
:1010900030E081E090E0022E02C0880F991F0A9490
:1010A000E2F784278C9327C0A5E3B0E0E5E3F0E006
:1010B0008081482F8981282F30E081E090E0022E46
:1010C00002C0880F991F0A94E2F784278C9313C0FB
:1010D000A2E3B0E0E2E3F0E08081482F8981282F8D
:1010E00030E081E090E0022E02C0880F991F0A9440
:1010F000E2F784278C930F900F900F900F900F9032
:10110000CF91DF910895DF93CF93CDB7DEB780E124
:1011100061E00E949B0581E161E00E949B0582E104
:1011200061E00E949B0583E161E00E949B0584E1F0
:1011300060E00E949B0585E160E00E949B0586E1DE
:1011400060E00E949B0587E160E00E949B0584E1CE
:1011500061E00E94860685E161E00E94860686E1E4
:1011600061E00E94860687E161E00E948606CF91D9
:10117000DF910895DF93CF930F92CDB7DEB780E173
:1011800060E00E94860681E161E00E94860682E1BD
:1011900061E00E94860683E161E00E94860684E1A8
:1011A0000E947107882391F485E10E9471078130C4
:1011B00069F486E10E947107813041F487E10E9461
:1011C0007107813019F481E089838AC184E10E942A
:1011D0007107813091F485E10E947107882369F4D9
:1011E00086E10E947107813041F487E10E94710716
:1011F000813019F482E0898373C184E10E94710710
:10120000813091F485E10E947107813069F486E1B3
:101210000E947107882341F487E10E9471078130A1
:1012200019F483E089835CC184E10E9471078130F5
:1012300091F485E10E947107813069F486E10E9492
:101240007107813041F487E10E947107882319F406
:101250008BE2898345C180E161E00E94860681E1DD
:1012600060E00E94860682E161E00E94860683E1DA
:1012700061E00E94860684E10E947107882391F450
:1012800085E10E947107813069F486E10E9471074F
:10129000813041F487E10E947107813019F484E0C4
:1012A00089831EC184E10E947107813091F485E138
:1012B0000E947107882369F486E10E9471078130DA
:1012C00041F487E10E947107813019F485E0898338
:1012D00007C184E10E947107813091F485E10E9489
:1012E0007107813069F486E10E947107882341F417
:1012F00087E10E947107813019F486E08983F0C08C
:1013000084E10E947107813091F485E10E947107A8
:10131000813069F486E10E947107813041F487E1F0
:101320000E947107882319F48DE28983D9C080E176
:1013300061E00E94860681E161E00E94860682E10A
:1013400060E00E94860683E161E00E94860684E1F7
:101350000E947107882391F485E10E947107813012
:1013600069F486E10E947107813041F487E10E94AF
:101370007107813019F487E08983B2C084E10E944B
:101380007107813091F485E10E947107882369F427
:1013900086E10E947107813041F487E10E94710764
:1013A000813019F488E089839BC084E10E94710731
:1013B000813091F485E10E947107813069F486E102
:1013C0000E947107882341F487E10E9471078130F0
:1013D00019F489E0898384C084E10E947107813017
:1013E00091F485E10E947107813069F486E10E94E1
:1013F0007107813041F487E10E947107882319F455
:101400008AE289836DC080E161E00E94860681E105
:1014100061E00E94860682E161E00E94860683E127
:1014200060E00E94860684E10E947107882391F49F
:1014300085E10E947107813069F486E10E9471079D
:10144000813041F487E10E947107813019F483E211
:10145000898346C084E10E947107813089F485E167
:101460000E947107882361F486E10E947107813030
:1014700039F487E10E947107813011F4198230C07C
:1014800084E10E947107813091F485E10E94710727
:10149000813069F486E10E947107882341F487E175
:1014A0000E947107813019F48DE3898319C084E1AA
:1014B0000E947107813091F485E10E9471078130AB
:1014C00069F486E10E947107813041F487E10E944E
:1014D0007107882319F48FE2898302C08FEF898313
:1014E00089810F90CF91DF910895DF93CF93CDB78E
:1014F000DEB7E8970FB6F894DEBF0FBECDBF84E02D
:1015000061E00E949B0585E061E00E949B0586E00A
:1015100061E00E949B0587E061E00E949B0588E0F6
:1015200061E00E949B0589E061E00E949B0582E3E7
:101530000E943B0E80E090E0A0E0B0E48DAB9EAB5B
:10154000AFABB8AF6DA97EA98FA998AD20E030E010
:101550004AEF54E40E941702DC01CB0189AB9AAB3D
:10156000ABABBCAB69A97AA98BA99CA920E030E000
:1015700040E85FE30E94710388232CF481E090E04F
:1015800098AB8FA73FC069A97AA98BA99CA920E035
:101590003FEF4FE757E40E94110318164CF56DA971
:1015A0007EA98FA998AD20E030E040E251E40E948E
:1015B0001702DC01CB01BC01CD010E944100DC011E
:1015C000CB0198AB8FA70FC088EC90E09EA78DA7AA
:1015D0008DA59EA50197F1F79EA78DA78FA598A928
:1015E000019798AB8FA78FA598A9009769F714C0AA
:1015F00069A97AA98BA99CA90E944100DC01CB01B1
:1016000098AB8FA78FA598A99CA78BA78BA59CA506
:101610000197F1F79CA78BA788E20E943B0E80E020
:1016200090E0A0E0B0E48FA398A7A9A7BAA76FA104
:1016300078A589A59AA520E030E04AEF54E40E94FD
:101640001702DC01CB018BA39CA3ADA3BEA36BA1AE
:101650007CA18DA19EA120E030E040E85FE30E94E4
:10166000710388232CF481E090E09AA389A33FC002
:101670006BA17CA18DA19EA120E03FEF4FE757E435
:101680000E94110318164CF56FA178A589A59AA59B
:1016900020E030E040E251E40E941702DC01CB017F
:1016A000BC01CD010E944100DC01CB019AA389A3BA
:1016B0000FC088EC90E098A38F8F8F8D98A1019731
:1016C000F1F798A38F8F89A19AA101979AA389A373
:1016D00089A19AA1009769F714C06BA17CA18DA183
:1016E0009EA10E944100DC01CB019AA389A389A19C
:1016F0009AA19E8F8D8F8D8D9E8D0197F1F79E8F74
:101700008D8F8CE00E943B0E80E090E0A0E0B0E482
:10171000898F9A8FAB8FBC8F698D7A8D8B8D9C8DC5
:1017200020E030E04AEF54E40E941702DC01CB01D4
:101730008D8B9E8BAF8BB88F6D897E898F89988DAD
:1017400020E030E040E85FE30E94710388232CF43E
:1017500081E090E09C8B8B8B3FC06D897E898F8967
:10176000988D20E03FEF4FE757E40E9411031816D1
:101770004CF5698D7A8D8B8D9C8D20E030E040E2B8
:1017800051E40E941702DC01CB01BC01CD010E9493
:101790004100DC01CB019C8B8B8B0FC088EC90E06F
:1017A0009A8B898B89899A890197F1F79A8B898B12
:1017B0008B899C8901979C8B8B8B8B899C8900974B
:1017C00069F714C06D897E898F89988D0E944100C8
:1017D000DC01CB019C8B8B8B8B899C89988B8F87B1
:1017E0008F8598890197F1F7988B8F8781E00E9408
:1017F0003B0E80E090E0A0E0B0E48B879C87AD8753
:10180000BE876B857C858D859E8520E030E04AEF24
:1018100054E40E941702DC01CB018F839887A987CB
:10182000BA876F81788589859A8520E030E040E825
:101830005FE30E94710388232CF481E090E09E8393
:101840008D833FC06F81788589859A8520E03FEF41
:101850004FE757E40E94110318164CF56B857C8501
:101860008D859E8520E030E040E251E40E94170221
:10187000DC01CB01BC01CD010E944100DC01CB01A8
:101880009E838D830FC088EC90E09C838B838B813B
:101890009C810197F1F79C838B838D819E810197B9
:1018A0009E838D838D819E81009769F714C06F811F
:1018B000788589859A850E944100DC01CB019E8351
:1018C0008D838D819E819A83898389819A810197F5
:1018D000F1F79A838983E8960FB6F894DEBF0FBEBE
:1018E000CDBFCF91DF910895DF93CF93CDB7DEB712
:1018F000AB970FB6F894DEBF0FBECDBF8BA788E0C5
:1019000061E00E94860689E061E00E9486068BA560
:1019100082958F70982F917084E0692F0E948606BF
:101920008BA5829586958770982F917085E0692F99
:101930000E9486068BA58295869586958370982F42
:10194000917086E0692F0E9486068BA5982F991FBB
:101950009927991F87E0692F0E94860680E090E012
:10196000A0E8B0E48FA398A7A9A7BAA76FA178A50C
:1019700089A59AA520E030E04AEF54E40E941702BE
:10198000DC01CB018BA39CA3ADA3BEA36BA17CA167
:101990008DA19EA120E030E040E85FE30E9471034A
:1019A00088232CF481E090E09AA389A33FC06BA127
:1019B0007CA18DA19EA120E03FEF4FE757E40E945C
:1019C000110318164CF56FA178A589A59AA520E0FA
:1019D00030E040E251E40E941702DC01CB01BC017F
:1019E000CD010E944100DC01CB019AA389A30FC065
:1019F00088EC90E098A38F8F8F8D98A10197F1F7D5
:101A000098A38F8F89A19AA101979AA389A389A1ED
:101A10009AA1009769F714C06BA17CA18DA19EA12A
:101A20000E944100DC01CB019AA389A389A19AA15C
:101A30009E8F8D8F8D8D9E8D0197F1F79E8F8D8F4F
:101A400089E060E00E94860680E090E0A0E0B0E4DB
:101A5000898F9A8FAB8FBC8F698D7A8D8B8D9C8D82
:101A600020E030E04AEF54E40E941702DC01CB0191
:101A70008D8B9E8BAF8BB88F6D897E898F89988D6A
:101A800020E030E040E85FE30E94710388232CF4FB
:101A900081E090E09C8B8B8B3FC06D897E898F8924
:101AA000988D20E03FEF4FE757E40E94110318168E
:101AB0004CF5698D7A8D8B8D9C8D20E030E040E275
:101AC00051E40E941702DC01CB01BC01CD010E9450
:101AD0004100DC01CB019C8B8B8B0FC088EC90E02C
:101AE0009A8B898B89899A890197F1F79A8B898BCF
:101AF0008B899C8901979C8B8B8B8B899C89009708
:101B000069F714C06D897E898F89988D0E94410084
:101B1000DC01CB019C8B8B8B8B899C89988B8F876D
:101B20008F8598890197F1F7988B8F8789E061E01D
:101B30000E9486068BA5982F917084E0692F0E94E1
:101B400086068BA58695982F917085E0692F0E9457
:101B500086068BA586958695982F917086E0692FCD
:101B60000E9486068BA5869586958695982F9170FE
:101B700087E0692F0E94860680E090E0A0E8B0E44C
:101B80008B879C87AD87BE876B857C858D859E8581
:101B900020E030E04AEF54E40E941702DC01CB0160
:101BA0008F839887A987BA876F81788589859A8579
:101BB00020E030E040E85FE30E94710388232CF4CA
:101BC00081E090E09E838D833FC06F817885898519
:101BD0009A8520E03FEF4FE757E40E941103181663
:101BE0004CF56B857C858D859E8520E030E040E25C
:101BF00051E40E941702DC01CB01BC01CD010E941F
:101C00004100DC01CB019E838D830FC088EC90E006
:101C10009C838B838B819C810197F1F79C838B83C1
:101C20008D819E8101979E838D838D819E810097FA
:101C300069F714C06F81788589859A850E94410073
:101C4000DC01CB019E838D838D819E819A83898364
:101C500089819A810197F1F79A83898389E060E00D
:101C60000E948606AB960FB6F894DEBF0FBECDBFBE
:101C7000CF91DF910895DF93CF93CDB7DEB7AB97C8
:101C80000FB6F894DEBF0FBECDBF8BA788E060E033
:101C90000E94860689E061E00E9486068BA58295F7
:101CA0008F70982F917084E0692F0E9486068BA513
:101CB000829586958770982F917085E0692F0E9494
:101CC00086068BA58295869586958370982F917050
:101CD00086E0692F0E9486068BA5982F991F992769
:101CE000991F87E0692F0E94860680E090E0A0E8B7
:101CF000B0E48FA398A7A9A7BAA76FA178A589A5D3
:101D00009AA520E030E04AEF54E40E941702DC017B
:101D1000CB018BA39CA3ADA3BEA36BA17CA18DA182
:101D20009EA120E030E040E85FE30E947103882339
:101D30002CF481E090E09AA389A33FC06BA17CA121
:101D40008DA19EA120E03FEF4FE757E40E941103D1
:101D500018164CF56FA178A589A59AA520E030E06A
:101D600040E251E40E941702DC01CB01BC01CD012D
:101D70000E944100DC01CB019AA389A30FC088EC2B
:101D800090E098A38F8F8F8D98A10197F1F798A37A
:101D90008F8F89A19AA101979AA389A389A19AA15A
:101DA000009769F714C06BA17CA18DA19EA10E9430
:101DB0004100DC01CB019AA389A389A19AA19E8F3E
:101DC0008D8F8D8D9E8D0197F1F79E8F8D8F89E080
:101DD00060E00E94860680E090E0A0E0B0E4898F99
:101DE0009A8FAB8FBC8F698D7A8D8B8D9C8D20E007
:101DF00030E04AEF54E40E941702DC01CB018D8BE6
:101E00009E8BAF8BB88F6D897E898F89988D20E0EE
:101E100030E040E85FE30E94710388232CF481E006
:101E200090E09C8B8B8B3FC06D897E898F89988DCC
:101E300020E03FEF4FE757E40E94110318164CF5DE
:101E4000698D7A8D8B8D9C8D20E030E040E251E4ED
:101E50000E941702DC01CB01BC01CD010E944100B0
:101E6000DC01CB019C8B8B8B0FC088EC90E09A8BB4
:101E7000898B89899A890197F1F79A8B898B8B894C
:101E80009C8901979C8B8B8B8B899C89009769F728
:101E900014C06D897E898F89988D0E944100DC0174
:101EA000CB019C8B8B8B8B899C89988B8F878F85A3
:101EB00098890197F1F7988B8F8789E061E00E94FC
:101EC00086068BA5982F917084E0692F0E94860664
:101ED0008BA58695982F917085E0692F0E948606C4
:101EE0008BA586958695982F917086E0692F0E9424
:101EF00086068BA5869586958695982F917087E0A6
:101F0000692F0E94860680E090E0A0E0B0E48B8715
:101F10009C87AD87BE876B857C858D859E8520E0FF
:101F200030E04AEF54E40E941702DC01CB018F83BA
:101F30009887A987BA876F81788589859A8520E0F7
:101F400030E040E85FE30E94710388232CF481E0D5
:101F500090E09E838D833FC06F81788589859A85C7
:101F600020E03FEF4FE757E40E94110318164CF5AD
:101F70006B857C858D859E8520E030E040E251E4D4
:101F80000E941702DC01CB01BC01CD010E9441007F
:101F9000DC01CB019E838D830FC088EC90E09C8395
:101FA0008B838B819C810197F1F79C838B838D813F
:101FB0009E8101979E838D838D819E81009769F715
:101FC00014C06F81788589859A850E944100DC0163
:101FD000CB019E838D838D819E819A8389838981A4
:101FE0009A810197F1F79A83898389E060E00E94E2
:101FF0008606AB960FB6F894DEBF0FBECDBFCF916D
:10200000DF910895DF93CF9300D00F92CDB7DEB765
:102010009B838A83198220C08981803121F481E0E9
:1020200060E00E9435108981282F30E08A819B81F1
:10203000FC01E20FF31F8081882389F08981282F1A
:1020400030E08A819B81FC01E20FF31F80810E94B6
:10205000740C89818F5F898389818032E8F20F90C7
:102060000F900F90CF91DF910895DF93CF9300D021
:1020700000D0CDB7DEB789836A838981282F30E00D
:102080003C832B838B819C81009739F02B813C8191
:102090002130310509F472C0E0C08A81882321F41F
:1020A00080E80E943B0ED9C08A81813021F481E80A
:1020B0000E943B0ED2C08A81823021F482E80E94C5
:1020C0003B0ECBC08A81833021F483E80E943B0E13
:1020D000C4C08A81843021F484E80E943B0EBDC0D4
:1020E0008A81853021F485E80E943B0EB6C08A8142
:1020F000863021F486E80E943B0EAFC08A8187308B
:1021000021F487E80E943B0EA8C08A81883021F420
:1021100088E80E943B0EA1C08A81893021F489E8B9
:102120000E943B0E9AC08A818A3021F48AE80E947C
:102130003B0E93C08A818B3021F48BE80E943B0ECA
:102140008CC08A818C3021F48CE80E943B0E85C0C3
:102150008A818D3021F48DE80E943B0E7EC08A81F9
:102160008E3021F48EE80E943B0E77C08A818F303A
:1021700009F073C08FE80E943B0E6FC08A818823EC
:1021800021F480EC0E943B0E68C08A81813021F4EA
:1021900081EC0E943B0E61C08A81823021F482EC86
:1021A0000E943B0E5AC08A81833021F483EC0E9446
:1021B0003B0E53C08A81843021F484EC0E943B0E94
:1021C0004CC08A81853021F485EC0E943B0E45C0CD
:1021D0008A81863021F486EC0E943B0E3EC08A81C3
:1021E000873021F487EC0E943B0E37C08A8188300B
:1021F00021F488EC0E943B0E30C08A81893021F4A2
:1022000089EC0E943B0E29C08A818A3021F48AEC35
:102210000E943B0E22C08A818B3021F48BEC0E94FD
:102220003B0E1BC08A818C3021F48CEC0E943B0E4B
:1022300014C08A818D3021F48DEC0E943B0E0DC0BC
:102240008A818E3021F48EEC0E943B0E06C08A817A
:102250008F3019F48FEC0E943B0E0F900F900F906F
:102260000F90CF91DF910895DF93CF930F92CDB769
:10227000DEB70E9483080E94750A80E690E00E9403
:10228000021081E060E00E9435100E94BA08898344
:1022900089818A30D0F78981805D0E94740C81E049
:1022A00060E00E943510F1CF2F923F924F925F92E3
:1022B0006F927F928F929F92AF92BF92CF92DF9256
:1022C000EF92FF920F931F93CF93DF93CDB7DEB7BB
:1022D000CA1BDB0B0FB6F894DEBF0FBECDBF09944F
:1022E0002A88398848885F846E847D848C849B84A6
:1022F000AA84B984C884DF80EE80FD800C811B81B4
:10230000AA81B981CE0FD11D0FB6F894DEBF0FBEE2
:0A231000CDBFED010895F894FFCF52
:10231A00796F752070726573736564203A200000C6
:08232A000000000000000000AB
:00000001FF
